:100000000C945D000C9485000C9485000C94850084
:100010000C9485000C9485000C9485000C9485004C
:100020000C9485000C9485000C9485000C9485003C
:100030000C9485000C9485000C9485000C9485002C
:100040000C945C030C9485000C94CC030C94A603D4
:100050000C9485000C9485000C9485000C9485000C
:100060000C9485000C94850000000008000201003B
:100070000003040700000000000000000000000072
:10008000250028002B0000000000240027002A0083
:10009000040404040404040402020202020203032E
:1000A0000303030301020408102040800102040836
:1000B0001020010204081020280611241FBECFEFD3
:1000C000D8E0DEBFCDBF11E0A0E0B1E0E4EEF1E1A9
:1000D00002C005900D92A434B107D9F721E0A4E441
:1000E000B1E001C01D92AE3EB207E1F710E0CDE5F0
:1000F000D0E004C02197FE010E94EF06CC35D10765
:10010000C9F70E94FE030C94F0080C94000090E0E4
:10011000FC01EC55FF4F249180579F4FFC018491C7
:10012000882399F090E0880F991FFC01EA57FF4F50
:10013000A591B491FC01E458FF4F859194918FB73C
:10014000F894EC91E22BEC938FBF089590E0FC01C2
:10015000E859FF4F2491FC01EC55FF4F3491FC010D
:10016000E057FF4FE491EE23C9F0222339F023300A
:1001700001F1A8F4213019F1223029F1F0E0EE0F5D
:10018000FF1FE458FF4FA591B4918FB7F894EC91FD
:10019000611126C030953E233C938FBF08952730D0
:1001A000A9F02830C9F0243049F7809180008F7D74
:1001B00003C0809180008F7780938000DFCF84B56B
:1001C0008F7784BDDBCF84B58F7DFBCF8091B0006E
:1001D0008F778093B000D2CF8091B0008F7DF9CF20
:1001E0003E2BDACF8E3008F08E508770806480937B
:1001F0007C0080917A00806480937A0080917A00FC
:1002000086FDFCCF809178009091790008953FB7EA
:10021000F8948091450190914601A0914701B091D9
:10022000480126B5A89B05C02F3F19F00196A11DD6
:10023000B11D3FBFBA2FA92F982F8827BC01CD0130
:10024000620F711D811D911D42E0660F771F881F8F
:10025000991F4A95D1F708958F929F92AF92BF92BE
:10026000CF92DF92EF92FF924B015C010E94070157
:100270006B017C010E9407016C197D098E099F09A1
:10028000683E734081059105A8F321E0821A910828
:10029000A108B10888EEC80E83E0D81EE11CF11C4D
:1002A00081149104A104B10429F7FF90EF90DF902D
:1002B000CF90BF90AF909F908F900895AF92BF92D4
:1002C000CF92DF92EF92FF920F931F93CF93DF9322
:1002D0006C017B018B01040F151FEB015E01AE1851
:1002E000BF08C017D10759F06991D601ED91FC9173
:1002F0000190F081E02DC6010995892B79F7C501A0
:10030000DF91CF911F910F91FF90EF90DF90CF90F1
:10031000BF90AF900895FC01538D448D252F30E0A0
:10032000842F90E0821B930B541710F0CF96089502
:1003300001970895FC01918D828D981761F0A28D2F
:10034000AE0FBF2FB11D5D968C91928D9F5F9F73F5
:10035000928F90E008958FEF9FEF08952FB7F89454
:100360008091490190914A01A0914B01B0914C01BB
:100370002FBF8093550190935601A0935701B093DE
:1003800058018DE491E00E949A0197FF26C02FB793
:10039000F8948091490190914A01A0914B01B0914C
:1003A0004C012FBF4091550150915601609157016A
:1003B00070915801841B950BA60BB70B409151010E
:1003C0005091520160915301709154018417950727
:1003D000A607B707B0F28FEF9FEF0895FC01918D4C
:1003E000828D981731F0828DE80FF11D858D90E098
:1003F00008958FEF9FEF0895FC01918D228D892F35
:1004000090E0805C9F4F821B91098F73992708951C
:100410008DE491E00E94FC0121E0892B09F420E0A9
:10042000822F089580E090E0892B29F00E94080235
:1004300081110C9400000895FC01A48DA80FB92F20
:10044000B11DA35ABF4F2C91848D90E001968F73FC
:100450009927848FA689B7892C93A089B1898C911B
:10046000837080648C93938D848D981306C002886A
:10047000F389E02D80818F7D80830895EF92FF9234
:100480000F931F93CF93DF93EC0181E0888F9B8DB7
:100490008C8D98131AC0E889F989808185FF15C071
:1004A0009FB7F894EE89FF896083E889F989808194
:1004B0008370806480839FBF81E090E0DF91CF9163
:1004C0001F910F91FF90EF900895F62E0B8D10E085
:1004D0000F5F1F4F0F731127E02E8C8D8E110CC0F4
:1004E0000FB607FCFACFE889F989808185FFF5CF3F
:1004F000CE010E941C02F1CFEB8DEC0FFD2FF11D00
:10050000E35AFF4FF0829FB7F8940B8FEA89FB897B
:1005100080818062CFCFCF93DF93EC01888D8823D9
:10052000B9F0AA89BB89E889F9898C9185FD03C056
:10053000808186FD0DC00FB607FCF7CF8C9185FF3B
:10054000F2CF808185FFEDCFCE010E941C02E9CF62
:10055000DF91CF910895FC0101900020E9F73197D8
:10056000AF01481B590BBC018DE491E00C945E0176
:100570000F931F93CF93DF93EC01888199810097AC
:1005800059F02A813B812617370730F081E0DF914F
:10059000CF911F910F9108958B016F5F7F4F0E9444
:1005A0001A08009759F0998388831B830A832C814A
:1005B0003D81232B59F7FC011082E8CF80E0E7CF83
:1005C0008F929F92AF92BF92CF92DF92EF92FF9263
:1005D000CF93DF93CDB7DEB7A1970FB6F894DEBF08
:1005E0000FBECDBF6B01682F8DE491E00E943E02EB
:1005F0008CE191E00E94AB020D2C000CEE08FF088C
:10060000F7FE3FC06DE28DE491E00E943E0222279A
:100610003327A9012C193D094E095F0919A2CE0102
:1006200081967C019AE0892E912CA12CB12CCA01D3
:10063000B901A50194010E94B706605DF7016293BC
:100640007F01211531054105510589F7E114F104B8
:1006500019F0C7010E94AB028EE191E00E94AB024B
:10066000A1960FB6F894DEBF0FBECDBFDF91CF913C
:10067000FF90EF90DF90CF90BF90AF909F908F90C2
:100680000895A701960119A2CE0181967C018AE006
:10069000882E912CA12CB12CCA01B901A50194017D
:1006A0000E94B706605DF70162937F012115310555
:1006B0004105510589F7CACF1F920F920FB60F92CD
:1006C00011242F933F938F939F93AF93BF93809168
:1006D000490190914A01A0914B01B0914C01309198
:1006E000440123E0230F2D3758F50196A11DB11DBC
:1006F000209344018093490190934A01A0934B01B8
:10070000B0934C018091450190914601A091470121
:10071000B09148010196A11DB11D809345019093B0
:100720004601A0934701B0934801BF91AF919F91BB
:100730008F913F912F910F900FBE0F901F901895A2
:1007400026E8230F0296A11DB11DD2CF1F920F9252
:100750000FB60F9211242F933F934F935F936F9394
:100760007F938F939F93AF93BF93EF93FF938DE40A
:1007700091E00E941C02FF91EF91BF91AF919F9178
:100780008F917F916F915F914F913F912F910F903A
:100790000FBE0F901F9018951F920F920FB60F92D9
:1007A00011242F938F939F93EF93FF93E0915D011B
:1007B000F0915E018081E0916301F091640182FD1E
:1007C0001BC09081809166018F5F8F7320916701BC
:1007D000821741F0E0916601F0E0E35BFE4F958FF8
:1007E00080936601FF91EF919F918F912F910F90D0
:1007F0000FBE0F901F9018958081F4CFCF93DF9399
:10080000CDB7DEB728970FB6F894DEBF0FBECDBFC9
:10081000789484B5826084BD84B5816084BD85B5DB
:10082000826085BD85B5816085BD80916E008160E7
:1008300080936E001092810080918100826080938D
:10084000810080918100816080938100809180008F
:100850008160809380008091B10084608093B100BA
:100860008091B00081608093B00080917A008460B4
:1008700080937A0080917A00826080937A008091E0
:100880007A00816080937A0080917A0080688093FA
:100890007A001092C10087E00E94870086E00E94E3
:1008A000870085E00E9487008AE00E94870089E037
:1008B0000E94870088E00E948700E0915D01F0912E
:1008C0005E0182E08083E0915901F0915A0110822B
:1008D000E0915B01F0915C018FEC808310926501E7
:1008E000E0916101F091620186E08083E0915F0117
:1008F000F0916001808180618083E0915F01F091DF
:100900006001808188608083E0915F01F0916001E7
:10091000808180688083E0915F01F0916001808137
:100920008F7D808361E087E00E94A60061E086E021
:100930000E94A60061E085E00E94A60061E08AE0D6
:100940000E94A60061E089E00E94A60061E088E0C4
:100950000E94A60064EF71E080E090E00E942C010C
:1009600060E087E00E94A60060E086E00E94A600AA
:1009700060E085E00E94A60060E08AE00E94A60098
:1009800060E089E00E94A60060E088E00E94A60086
:1009900081E291E00E94AB028EE191E00E94AB0205
:1009A00044244A9493E0592E612C712C20E0822E2D
:1009B00020E0922E8EE00E94F2007C018FE00E94E7
:1009C000F2008C0125E630E0D7010E94E806A30181
:1009D00092010E94610659017901253631051CF00A
:1009E00084E6E82EF12C25E630E0D8010E94E806E6
:1009F000A30192010E946106690189012536310532
:100A000014F004E610E061E0F2E2AF16B1040CF479
:100A100060E087E00E94A60061E083E4A816B104CC
:100A20000CF460E086E00E94A60061E0EBE5AE1603
:100A3000B1040CF460E085E00E94A60061E0F2E2FF
:100A4000CF16D1040CF460E08AE00E94A60061E0B9
:100A500083E4C816D1040CF460E089E00E94A6008B
:100A600061E0EBE5CE16D1040CF460E088E00E9472
:100A7000A6008091020190910301E816F90641F069
:100A8000B70186E50E94E002F0920301E0920201C4
:100A900080910001909101010817190741F0B801F8
:100AA00082E40E94E00210930101009300018DE4B2
:100AB00091E00E94FC01181619060CF080C01A8201
:100AC00019821C821B821E821D8270E060E0CE01B2
:100AD00001960E94B80229813A8181112BC021150B
:100AE000310519F0C9010E9491071A8219821E82EC
:100AF0001D821C821B820E94AE010D811E8197FD0A
:100B000021C08F8318860F5F1F4FB801CE01019659
:100B10000E94B802882379F329813A818D819E81D0
:100B2000BE01695F7F4F820F931F0E94E9081E83F9
:100B30000D83E1CF1E821D8260E271E0C9010E9437
:100B4000E908D9CFC980DA80C114D10429F076012F
:100B50000115110509F046C08D819E81892B49F14F
:100B600062E371E089819A810E94E008892B09F58E
:100B700003E010E061E087E00E94A60061E08AE007
:100B80000E94A60068EC70E080E090E00E942C01DA
:100B900060E087E00E94A60060E08AE00E94A60074
:100BA00068EC70E080E090E00E942C010150110997
:100BB00009F789819A81009711F00E94910764E6F4
:100BC00070E080E090E00E942C018114910409F40F
:100BD000F1CE0E940802882309F4ECCE0E940000A6
:100BE000E9CE75015701FFEFAF1ABF0AF701808107
:100BF000082E000C990B0E945506892B91F7015085
:100C000011090C0D1D1DF8018081082E000C990B97
:100C10000E945506892B31F00E151F0518F0015062
:100C20001109F1CF0F5F1F4FA8014E195F095E83B5
:100C30004D83CE14DF0420F4B701C6010E94D7080B
:100C4000E981FA818D819E81E80FF91F108284CF9E
:100C5000EDE4F1E01382128288EE93E0A0E0B0E0D0
:100C600084839583A683B7838EE091E0918380830C
:100C700085EC90E09587848784EC90E09787868761
:100C800080EC90E0918B808B81EC90E0938B828B59
:100C900082EC90E0958B848B86EC90E0978B868B32
:100CA000118E128E138E148E089591110C945E067F
:100CB000803219F089508550C8F708959927882700
:100CC0000895052E97FB1EF400940E94780657FDA8
:100CD00007D00E94B70607FC03D04EF40C947806A8
:100CE00050954095309521953F4F4F4F5F4F089558
:100CF00090958095709561957F4F8F4F9F4F089588
:100D00002F923F924F925F926F927F928F929F921B
:100D1000AF92BF92CF92DF92EF92FF920F931F9309
:100D2000CF93DF93CDB7DEB7CA1BDB0B0FB6F894BA
:100D3000DEBF0FBECDBF09942A88398848885F84FA
:100D40006E847D848C849B84AA84B984C884DF806B
:100D5000EE80FD800C811B81AA81B981CE0FD11D4F
:100D60000FB6F894DEBF0FBECDBFED010895A1E22E
:100D70001A2EAA1BBB1BFD010DC0AA1FBB1FEE1F15
:100D8000FF1FA217B307E407F50720F0A21BB30B60
:100D9000E40BF50B661F771F881F991F1A9469F7DC
:100DA00060957095809590959B01AC01BD01CF0138
:100DB0000895A29FB001B39FC001A39F700D811D34
:100DC0001124911DB29F700D811D1124911D089554
:100DD0000E94D906B7FF0895821B930B0895EE0F6A
:100DE000FF1F0590F491E02D09940F931F93CF936B
:100DF000DF938230910510F482E090E0E091EC0105
:100E0000F091ED0130E020E0B0E0A0E0309799F4FF
:100E10002115310509F44AC0281B390B243031054E
:100E2000D8F58A819B816115710589F1FB01938356
:100E30008283FE0111C040815181028113814817D4
:100E40005907E0F04817590799F4109761F0129686
:100E50000C93129713961C933296CF01DF91CF918A
:100E60001F910F9108950093EC011093ED01F4CFC1
:100E70002115310551F04217530738F0A901DB0164
:100E80009A01BD01DF01F801C1CFEF01F9CF9093C5
:100E9000ED018093EC01CDCFFE01E20FF31F8193B2
:100EA00091932250310939832883D7CF2091EA01C9
:100EB0003091EB01232B41F4209106013091070181
:100EC0003093EB012093EA01209104013091050158
:100ED0002115310541F42DB73EB7409108015091DD
:100EE0000901241B350BE091EA01F091EB01E217B7
:100EF000F307A0F42E1B3F0B2817390778F0AC013D
:100F00004E5F5F4F2417350748F04E0F5F1F509319
:100F1000EB014093EA01819391939FCFF0E0E0E0F1
:100F20009CCFCF93DF930097E9F0FC0132971382B7
:100F30001282A091EC01B091ED01ED0130E020E0D2
:100F40001097A1F420813181820F931F2091EA0133
:100F50003091EB012817390709F061C0F093EB01DC
:100F6000E093EA01DF91CF910895EA01CE17DF0700
:100F7000E8F54A815B819E0141155105B1F7E90110
:100F8000FB83EA8349915991C40FD51FEC17FD07E4
:100F900061F4808191810296840F951FE901998304
:100FA0008883828193819B838A83F0E0E0E01296BC
:100FB0008D919C9113970097B9F52D913C911197C4
:100FC000CD010296820F931F2091EA013091EB012F
:100FD0002817390739F6309751F51092ED01109224
:100FE000EC01B093EB01A093EA01BCCFD383C283A1
:100FF00040815181840F951FC817D90761F44E5F56
:101000005F4F88819981480F591F518340838A819E
:101010009B81938382832115310509F0B0CFF09332
:10102000ED01E093EC019ECFFD01DC01C0CF138206
:101030001282D7CFB0E0A0E0E0E2F8E00C948206A4
:101040008C01009751F4CB010E94F5068C01C80178
:10105000CDB7DEB7E0E10C949E06FC01E60FF71F6A
:101060009C0122503109E217F30708F49DC0D90111
:10107000CD91DC911197C617D70798F0C530D105EF
:1010800030F3CE0104978617970708F3C61BD70BDA
:101090002297C193D1936D937C93CF010E949107C6
:1010A000D6CF5B01AC1ABD0A4C018C0E9D1EA091DF
:1010B000EC01B091ED01512C412CF12CE12C109759
:1010C00031F58091EA019091EB018815990509F0BD
:1010D0005CC04616570608F058C0809104019091F4
:1010E0000501009741F48DB79EB7409108015091DA
:1010F0000901841B950BE817F90708F055C0F09318
:10110000EB01E093EA01F90171836083A0CF8D9137
:101110009C91119712966C90129713967C9013974E
:10112000A815B90559F56C0142E0C40ED11CCA14CA
:10113000DB0420F1AC014A195B09DA01129615971C
:1011400080F06282738251834083D9016D937C93D6
:10115000E114F10471F0D7011396FC93EE9312970A
:1011600076CF22968C0F9D1FF90191838083F30126
:10117000EFCFF093ED01E093EC0169CF48165906EB
:1011800008F42C017D01D3019ACFCB010E94F50612
:101190007C01009749F0AE01B8010E94D708C80150
:1011A0000E949107870153CF10E000E050CFFB0170
:1011B000DC0102C001900D9241505040D8F70895D3
:1011C000FB01DC018D91019080190110D9F3990B7D
:1011D0000895FB01DC0101900D920020E1F70895D4
:0411E000F894FFCFB1
:1011E400FFFFFFFF0000EE018000000000003E0250
:1011F4005E018B018B02FC019A01EE013A000D0A9B
:101204000041524455494E4F5F494E494349414478
:101214004F00434F4D50555441444F52415F4C4948
:0412240053544100DE
:00000001FF
